:020000040800F2
:10000000000001209D1A00086D1900086F190008F2
:100010007119000873190008751900080000000024
:100020000000000000000000000000007719000838
:1000300079190008000000007B1900087D190008EC
:10004000E51A0008E51A0008E51A0008E51A000894
:10005000E51A0008E51A0008E51A0008E51A000884
:10006000E51A0008E51A0008E51A0008E51A000874
:10007000E51A0008E51A0008E51A0008E51A000864
:10008000E51A0008E51A0008E51A0008E51A000854
:10009000E51A0008E51A0008E51A0008E51A000844
:1000A000E51A0008E51A0008E51A0008E51A000834
:1000B000E51A0008E51A0008E51A0008E51A000824
:1000C000E51A0008E51A0008E51A0008E51A000814
:1000D000E51A0008E51A0008E51A0008E51A000804
:1000E000E51A0008E51A0008E51A0008E51A0008F4
:1000F000E51A0008E51A0008E51A0008E51A0008E4
:10010000E51A0008E51A0008E51A0008E51A0008D3
:10011000E51A0008E51A0008E51A0008E51A0008C3
:10012000E51A0008E51A0008E51A0008E51A0008B3
:1001300000000000000000000000000000000000BF
:1001400000000000000000000000000000000000AF
:10015000000000000000000000000000000000009F
:10016000000000000000000000000000000000008F
:10017000000000000000000000000000000000007F
:10018000000000000000000000000000000000006F
:10019000000000000000000000000000000000005F
:1001A000000000000000000000000000000000004F
:1001B000000000000000000000000000000000003F
:1001C000000000000000000000000000000000002F
:1001D000000000000000000000000000000000001F
:0401E0005FF8E0F1F3
:1001E80010B5054C237833B9044B13B10448AFF369
:1001F80000800123237010BD080A002000000000C1
:10020800A0EA000808B5034B1BB103490348AFF344
:10021800008008BD000000000C0A0020A0EA0008C9
:1002280081F0004102E000BF83F0004330B54FEA9F
:1002380041044FEA430594EA050F08BF90EA020F0C
:100248001FBF54EA000C55EA020C7FEA645C7FEA9F
:10025800655C00F0E2804FEA5454D4EB5555B8BFC2
:100268006D420CDD2C4480EA020281EA030382EA33
:10027800000083EA010180EA020281EA0303362DC5
:1002880088BF30BD11F0004F4FEA01314FF4801C98
:100298004CEA113102D0404261EB410113F0004FAA
:1002A8004FEA03334CEA133302D0524263EB430361
:1002B80094EA050F00F0A780A4F10104D5F1200EFF
:1002C8000DDB02FA0EFC22FA05F2801841F100015A
:1002D80003FA0EF2801843FA05F359410EE0A5F12E
:1002E80020050EF1200E012A03FA0EFC28BF4CF05F
:1002F800020C43FA05F3C01851EBE37101F0004515
:1003080007D54FF0000EDCF1000C7EEB00006EEB21
:100318000101B1F5801F1BD3B1F5001F0CD34908AB
:100328005FEA30004FEA3C0C04F101044FEA445202
:1003380012F5800F80F09A80BCF1004F08BF5FEA89
:10034800500C50F1000041EB045141EA050130BD69
:100358005FEA4C0C404141EB0101013C28BFB1F57B
:10036800801FE9D291F0000F04BF01460020B1FAC6
:1003780081F308BF2033A3F10B03B3F120020CDA99
:100388000C3208DD02F1140CC2F10C0201FA0CF077
:1003980021FA02F10CE002F11402D8BFC2F1200CDC
:1003A80001FA02F120FA0CFCDCBF41EA0C01904092
:1003B800E41AA2BF01EB0451294330BD6FEA0404DB
:1003C8001F3C1CDA0C340EDC04F11404C4F12002C6
:1003D80020FA04F001FA02F340EA030021FA04F3D8
:1003E80045EA030130BDC4F10C04C4F1200220FA2F
:1003F80002F001FA04F340EA0300294630BD21FA6D
:1004080004F0294630BD94F0000F83F4801306BF32
:1004180081F480110134013D4EE77FEA645C18BF26
:100428007FEA655C29D094EA050F08BF90EA020FBD
:1004380005D054EA000C04BF1946104630BD91EAB5
:10044800030F1EBF0021002030BD5FEA545C05D1B8
:100458004000494128BF41F0004130BD14F58004F7
:100468003CBF01F5801130BD01F0004545F0FE416B
:1004780041F470014FF0000030BD7FEA645C1ABFA0
:10048800194610467FEA655C1CBF0B46024650EAD7
:10049800013406BF52EA033591EA030F41F4002103
:1004A80030BD00BF90F0000F04BF0021704730B589
:1004B8004FF4806404F132044FF000054FF000015E
:1004C80050E700BF90F0000F04BF0021704730B51F
:1004D8004FF4806404F1320410F0004548BF4042F4
:1004E8004FF000013EE700BF42004FEAE2014FEA49
:1004F80031014FEA02701FBF12F07F4393F07F4F24
:1005080081F06051704732F07F4208BF704793F026
:100518007F4F04BF41F40021704730B54FF4607439
:1005280001F0004521F000411CE700BF50EA01023C
:1005380008BF704730B54FF000050AE050EA0102E5
:1005480008BF704730B511F0004502D5404261EB55
:1005580041014FF4806404F132045FEA915C3FF496
:10056800D8AE4FF003025FEADC0C18BF03325FEA33
:10057800DC0C18BF033202EBDC02C2F1200300FAE4
:1005880003FC20FA02F001FA03FE40EA0E0021FA09
:1005980002F11444BDE600BF70B54FF0FF0C4CF4F7
:1005A800E06C1CEA11541DBF1CEA135594EA0C0FA9
:1005B80095EA0C0F00F0DEF82C4481EA030621EAE4
:1005C8004C5123EA4C5350EA013518BF52EA03351F
:1005D80041F4801143F4801338D0A0FB02CE4FF0D1
:1005E8000005E1FB02E506F00042E0FB03E54FF001
:1005F8000006E1FB03569CF0000F18BF4EF0010EF9
:10060800A4F1FF04B6F5007F64F5407404D25FEAF4
:100618004E0E6D4146EB060642EAC62141EA5551A7
:100628004FEAC52040EA5E504FEACE2EB4F1FD0CE9
:1006380088BFBCF5E06F1ED8BEF1004F08BF5FEA67
:10064800500E50F1000041EB045170BD06F0004619
:1006580046EA010140EA020081EA0301B4EB5C04C6
:10066800C2BFD4EB0C0541EA045170BD41F48011BE
:100678004FF0000E013C00F3AB8014F1360FDEBFE3
:10068800002001F0004170BDC4F10004203C35DABF
:100698000C341BDC04F11404C4F1200500FA05F342
:1006A80020FA04F001FA05F240EA020001F00042E3
:1006B80021F0004110EBD37021FA04F642EB060159
:1006C8005EEA430E08BF20EAD37070BDC4F10C0483
:1006D800C4F1200500FA04F320FA05F001FA04F247
:1006E80040EA020001F0004110EBD37041F1000133
:1006F8005EEA430E08BF20EAD37070BDC4F120053E
:1007080000FA05F24EEA020E20FA04F301FA05F2A5
:1007180043EA020321FA04F001F0004121FA04F24D
:1007280020EA020000EBD3705EEA430E08BF20EA1D
:10073800D37070BD94F0000F0FD101F00046400057
:1007480041EB010111F4801F08BF013CF7D041EAD9
:10075800060195F0000F18BF704703F000465200DD
:1007680043EB030313F4801F08BF013DF7D043EAAE
:100778000603704794EA0C0F0CEA135518BF95EA64
:100788000C0F0CD050EA410618BF52EA4306D1D1EB
:1007980081EA030101F000414FF0000070BD50EA0A
:1007A800410606BF1046194652EA430619D094EA94
:1007B8000C0F02D150EA013613D195EA0C0F05D17E
:1007C80052EA03361CBF104619460AD181EA0301D2
:1007D80001F0004141F0FE4141F470014FF000008A
:1007E80070BD41F0FE4141F4780170BD70B54FF025
:1007F800FF0C4CF4E06C1CEA11541DBF1CEA1355A5
:1008080094EA0C0F95EA0C0F00F0A7F8A4EB050486
:1008180081EA030E52EA03354FEA013100F088807D
:100828004FEA03334FF0805545EA131343EA126346
:100838004FEA022245EA111545EA10654FEA0026FB
:100848000EF000419D4208BF964244F1FD0404F5B4
:10085800407402D25B084FEA3202B61A65EB030510
:100868005B084FEA32024FF480104FF4002CB6EBCD
:10087800020E75EB030E22BFB61A754640EA0C004D
:100888005B084FEA3202B6EB020E75EB030E22BF8D
:10089800B61A754640EA5C005B084FEA3202B6EBCE
:1008A800020E75EB030E22BFB61A754640EA9C008D
:1008B8005B084FEA3202B6EB020E75EB030E22BF5D
:1008C800B61A754640EADC0055EA060E18D04FEA1B
:1008D800051545EA16754FEA06164FEAC30343EABB
:1008E80052734FEAC2025FEA1C1CC0D111F4801F88
:1008F8000BD141EA00014FF000004FF0004CB6E781
:1009080011F4801F04BF01430020B4F1FD0C88BF1F
:10091800BCF5E06F3FF6AFAEB5EB030C04BFB6EB2A
:10092800020C5FEA500C50F1000041EB045170BD1D
:100938000EF0004E4EEA113114EB5C04C2BFD4EB4A
:100948000C0541EA045170BD41F480114FF0000ECE
:10095800013C90E645EA060E8DE60CEA135594EA4A
:100968000C0F08BF95EA0C0F3FF43BAF94EA0C0F4D
:100978000AD150EA01347FF434AF95EA0C0F7FF4C2
:1009880025AF104619462CE795EA0C0F06D152EA16
:1009980003353FF4FDAE1046194622E750EA4106FA
:1009A80018BF52EA43067FF4C5AE50EA41047FF40B
:1009B8000DAF52EA43057FF4EBAE12E74FF0FF3C70
:1009C80006E000BF4FF0010C02E000BF4FF0010C41
:1009D8004DF804CD4FEA410C7FEA6C5C4FEA430CBA
:1009E80018BF7FEA6C5C1BD001B050EA410C0CBF09
:1009F80052EA430C91EA030F02BF90EA020F00206B
:100A0800704710F1000F91EA030F58BF994208BFD1
:100A180090422CBFD8176FEAE37040F0010070478E
:100A28004FEA410C7FEA6C5C02D150EA013C07D1E5
:100A38004FEA430C7FEA6C5CD6D152EA033CD3D030
:100A48005DF8040B704700BF8446104662468C462A
:100A58001946634600E000BF01B5FFF7B7FF00285D
:100A680048BF10F1000F01BD4DF808EDFFF7F4FF86
:100A78000CBF012000205DF808FB00BF4DF808ED11
:100A8800FFF7EAFF34BF012000205DF808FB00BF34
:100A98004DF808EDFFF7E0FF94BF012000205DF856
:100AA80008FB00BF4DF808EDFFF7CEFF94BF01200B
:100AB80000205DF808FB00BF4DF808EDFFF7C4FF04
:100AC80034BF012000205DF808FB00BF4A0011D2A6
:100AD80012F5001211D20DD56FF47873B3EB625290
:100AE8000ED44FEAC12343F0004343EA505323FA9C
:100AF80002F070474FF00000704750EA013002D111
:100B08004FF0FF3070474FF00000704780F0004012
:100B180002E000BF81F0004142001FBF5FEA4103CD
:100B280092EA030F7FEA226C7FEA236C6AD04FEACD
:100B38001262D2EB1363C1BFD21841404840414012
:100B4800B8BF5B42192B88BF704710F0004F40F4C4
:100B5800000020F07F4018BF404211F0004F41F4E0
:100B6800000121F07F4118BF494292EA030F3FD0AC
:100B7800A2F1010241FA03FC10EB0C00C3F12003BF
:100B880001FA03F100F0004302D5494260EB40004E
:100B9800B0F5000F13D3B0F1807F06D340084FEAB9
:100BA800310102F10102FE2A51D2B1F1004F40EBAE
:100BB800C25008BF20F0010040EA03007047490016
:100BC80040EB0000013A28BFB0F5000FEDD2B0FAB3
:100BD80080FCACF1080CB2EB0C0200FA0CF0AABFD6
:100BE80000EBC25052421843BCBFD0401843704774
:100BF80092F0000F81F4000106BF80F4000001327A
:100C0800013BB5E74FEA41037FEA226C18BF7FEA50
:100C1800236C21D092EA030F04D092F0000F08BF92
:100C28000846704790EA010F1CBF0020704712F079
:100C38007F4F04D1400028BF40F00040704712F1B8
:100C480000723CBF00F50000704700F0004343F01D
:100C5800FE4040F4000070477FEA226216BF084653
:100C68007FEA23630146420206BF5FEA412390EA16
:100C7800010F40F4800070474FF0000304E000BF0C
:100C880010F0004348BF40425FEA000C08BF7047BD
:100C980043F0964301464FF000001CE050EA010281
:100CA80008BF70474FF000030AE000BF50EA010296
:100CB80008BF704711F0004302D5404261EB410183
:100CC8005FEA010C02BF84460146002043F0B643A8
:100CD80008BFA3F18053A3F50003BCFA8CF2083ACD
:100CE800A3EBC25310DB01FA02FC634400FA02FCD6
:100CF800C2F12002BCF1004F20FA02F243EB0200DD
:100D080008BF20F00100704702F1200201FA02FC3E
:100D1800C2F1200250EA4C0021FA02F243EB020031
:100D280008BF20EADC7070474FF0FF0C1CEAD05275
:100D38001EBF1CEAD15392EA0C0F93EA0C0F6FD036
:100D48001A4480EA010C400218BF5FEA41211ED014
:100D58004FF0006343EA501043EA5111A0FB013100
:100D68000CF00040B1F5000F3EBF490041EAD371D5
:100D78005B0040EA010062F17F02FD2A1DD8B3F151
:100D8800004F40EBC25008BF20F00100704790F0C0
:100D9800000F0CF0004C08BF49024CEA502040EA12
:100DA80051207F3AC2BFD2F1FF0340EAC2507047D8
:100DB80040F400004FF00003013A5DDC12F1190F16
:100DC800DCBF00F000407047C2F10002410021FA88
:100DD80002F1C2F1200200FA02FC5FEA310040F1A0
:100DE800000053EA4C0308BF20EADC70704792F019
:100DF800000F00F0004C02BF400010F4000F013A51
:100E0800F9D040EA0C0093F0000F01F0004C02BF4B
:100E1800490011F4000F013BF9D041EA0C018FE7BA
:100E28000CEAD15392EA0C0F18BF93EA0C0F0AD0C0
:100E380030F0004C18BF31F0004CD8D180EA0100E6
:100E480000F00040704790F0000F17BF90F0004F7F
:100E5800084691F0000F91F0004F14D092EA0C0F61
:100E680001D142020FD193EA0C0F03D14B0218BFF4
:100E7800084608D180EA010000F0004040F0FE403A
:100E880040F40000704740F0FE4040F440007047D6
:100E98004FF0FF0C1CEAD0521EBF1CEAD15392EA55
:100EA8000C0F93EA0C0F69D0A2EB030280EA010C45
:100EB80049024FEA402037D04FF0805343EA1111DE
:100EC80043EA10130CF000408B4238BF5B0042F13C
:100ED8007D024FF4000C8B4224BF5B1A40EA0C00E1
:100EE800B3EB510F24BFA3EB510340EA5C00B3EB13
:100EF800910F24BFA3EB910340EA9C00B3EBD10F01
:100F080024BFA3EBD10340EADC001B0118BF5FEA52
:100F18001C1CE0D1FD2A3FF650AF8B4240EBC2507B
:100F280008BF20F0010070470CF0004C4CEA50203C
:100F38007F32C2BFD2F1FF0340EAC250704740F48B
:100F480000004FF00003013A37E792F0000F00F07D
:100F5800004C02BF400010F4000F013AF9D040EAFB
:100F68000C0093F0000F01F0004C02BF490011F48F
:100F7800000F013BF9D041EA0C0195E70CEAD15387
:100F880092EA0C0F08D142027FF47DAF93EA0C0F6E
:100F98007FF470AF084676E793EA0C0F04D14B0252
:100FA8003FF44CAF08466EE730F0004C18BF31F004
:100FB800004CCAD130F000427FF45CAF31F00043FE
:100FC8007FF43CAF5FE700BF42000ED2B2F1FE4FA4
:100FD8000BD34FF09E03B3EB126209D44FEA002300
:100FE80043F0004323FA02F070474FF000007047C7
:100FF80012F1610F01D1420202D14FF0FF30704768
:101008004FF00000704700BF80EA010C1CF0030F8E
:1010180037D110F0030C20F0030021F0030150F841
:10102800042B08BF51F8043B0ED08CF0030C6FF072
:101038007F434FEACC0C23FA0CFC51F8043B42EAFC
:101048000C0243EA0C0300BFA2F1013C9A4201BF23
:101058002CEA020C1CF0803F50F8042B51F8043B9A
:10106800F2D04FEA02604FEA1222012828BFB0EB03
:10107800036F08BF1B0AF4D003F0FF03000EC01A69
:10108800704710F0030F0AD010F8012B11F8013B3C
:10109800012A28BF9A42F4D0A2EB030070474DF80A
:1010A800045D50F8042B01F0030521F0030151F809
:1010B800043B022D26D04DD822F07F45B5EB132FE7
:1010C800A2F1013C2CEA020C0DD11CF0803C08BFB7
:1010D80051F8043B0AD185EA0205B5EB036F0CD140
:1010E80050F8042BE8E74FEA13235BE03CF07F4C11
:1010F80054D10B784FEA126554E04FEA126503F0B9
:10110800FF034FE04FEA0245A2F1013C4FEA1545C3
:101118002CEA020CB5EB134F18D11CF0803C08BF29
:1011280051F8043B07D185EA0205B5EB034F09D115
:1011380050F8042BE6E75FEA0C4C2FD10B884FEAF6
:1011480012452FE04FEA03434FEA12454FEA134393
:1011580028E000BF02F0FF05B5EB136FA2F1013CD8
:101168002CEA020C0DD11CF0803C08BF51F8043B5E
:101178000AD185EA0205B5EB032F0AD150F8042BF2
:10118800E8E74FEA13630DE012F0FF0F06D051F8BD
:10119800043B4FEA122523F07F4303E04FF00000A1
:1011A80020BC704705F0FF0203F0FF00012828BFAC
:1011B800904204BF2D0A1B0AF4D0A2EB000020BC09
:1011C800704700BF844641EA000313F0030349D186
:1011D800403A23D30B6803604B6843608B68836095
:1011E800CB68C3600B6903614B6943618B69836199
:1011F800CB69C3610B6A03624B6A43628B6A836281
:10120800CB6AC3620B6B03634B6B43638B6B836368
:10121800CB6BC36340304031403ADBD230320BD322
:101228000B6803604B6843608B688360CB68C3605E
:1012380010301031103AF3D20C3205D351F8043B78
:1012480040F8043B043AF9D2043208D0D2071CBF54
:1012580011F8013B00F8013B01D30B88038060467D
:10126800704700BF082A13D38B07B1D010F00303CF
:10127800AED0C3F10403D21ADB071CBF11F8013B3F
:1012880000F8013BA4D331F8023B20F8023B9FE76A
:10129800043AD9D3013A11F8013B00F8013BF9D2DD
:1012A8000B7803704B7843708B7883706046704777
:1012B8004FEA410C7FEA6C5C02D150EA013C0AD14A
:1012C8004FEA430C7FEA6C5C02D152EA033C02D13C
:1012D8004FF0000070474FF0010070474FEA41029D
:1012E80012F5001215D211D56FF47873B3EB625270
:1012F80012D94FEAC12343F0004343EA505311F097
:10130800004F23FA02F018BF404270474FF0000028
:10131800704750EA013005D111F0004008BF6FF066
:10132800004070474FF00000704700BF53B94AB9FA
:10133800002908BF00281CBF4FF0FF314FF0FF30D5
:1013480000F076B9ADF1080C6DE904CE00F006F8AE
:10135800DDF804E0DDE9022304B070472DE9F04729
:10136800089E0D4604468846002B4DD18A42944675
:1013780068D9B2FA82F252B101FA02F3C2F120013D
:1013880020FA01F10CFA02FC41EA030894404FEA02
:101398001C41B8FBF1F71FFA8CFE01FB178807FB0D
:1013A8000EF0230C43EA084398420AD91CEB0303C6
:1013B80007F1FF3580F01E81984240F21B81023F01
:1013C80063441B1AB3FBF1F001FB103300FB0EFE64
:1013D800A4B244EA0344A6450AD91CEB040400F16C
:1013E800FF3380F00981A64540F206816444023843
:1013F8000021A4EB0E0440EA07401EB10023D440AC
:10140800C6E90043BDE8F0878B4208D9002E00F0FA
:10141800EE800021C6E900050846BDE8F087B3FA6A
:1014280083F100294AD1AB4202D3824200F2FC8008
:10143800841A65EB030301209846002EE2D0C6E922
:101448000048DFE702B9FFDEB2FA82F2002A40F074
:101458009180A1EB0C0001214FEA1C471FFA8CFE7A
:10146800B0FBF7F307FB1300250C45EA00450EFB1C
:1014780003F0A84208D91CEB050503F1FF3802D296
:10148800A84200F2CE8043462D1AB5FBF7F007FBC1
:1014980010550EFB00FEA4B244EA0544A64508D93F
:1014A8001CEB040400F1FF3502D2A64500F2B68019
:1014B8002846A4EB0E0440EA03409EE7C1F120074A
:1014C8008B4022FA07FC4CEA030C25FA07FA4FEA8C
:1014D8001C49BAFBF9F820FA07F309FB18AA8D4052
:1014E8001FFA8CFE1D4300FA01F308FB0EF02C0CCA
:1014F80044EA0A44A04202FA01F20BD91CEB0404A4
:1015080008F1FF3A80F08880A04240F28580A8F177
:1015180002086444241AB4FBF9F009FB104400FBE8
:101528000EFEADB245EA0444A64508D91CEB0404F6
:1015380000F1FF356CD2A6456AD90238644440EA06
:101548000840A0FB0295A4EB0E04AC42C846AE4688
:1015580056D353D0002E69D0B3EB080264EB0E04C7
:1015680022FA01F304FA07F71F43CC40C6E90074D6
:10157800002147E70CFA02FCC2F1200125FA01F329
:101588004FEA1C4720FA01F195400D43B3FBF7F1F0
:1015980007FB11331FFA8CFE280C40EA034001FBBD
:1015A8000EF3834204FA02F408D91CEB000001F19F
:1015B800FF382FD283422DD902396044C01AB0FBBC
:1015C800F7F307FB1300ADB245EA004503FB0EF045
:1015D800A84208D91CEB050503F1FF3816D2A8422A
:1015E80014D9023B6544281A43EA014138E73146D9
:1015F800304607E72F46E4E61846F9E64B45A9D2F8
:10160800B9EB020865EB0C0E0138A3E74346EAE79D
:10161800284694E74146D1E7D0467BE76444023840
:1016280047E7023B65442FE7084606E73146E9E607
:10163800704700BF30B587B000230293039304932B
:101648000593184B1B680BB107B030BD154B012231
:101658001A60154B5A6942F480725A615B6903F447
:1016680080730193019B41F20103029302250395C4
:101678000324059402A90D4800F0DAFA4FF68073A6
:1016880002930395059402A9094800F0D1FA4CF297
:10169800337302930395059402A9064800F0C8FA2B
:1016A800D2E700BF240A00200010024000200140B9
:1016B800001801400014014010B58EB000230793B4
:1016C800089309930A930B930C930D93009301933A
:1016D800029303930493059306931C484FF020420A
:1016E800026002F58272426006228260C360036172
:1016F800102242618361C361036243624FF48051E7
:101708008162C3624FF480410163436383630223B0
:1017180007930F21089109920B9211230C9304242B
:101728000094019109210291049205936A4607A940
:1017380000F0D2FB30B9064AD36943F48063D36121
:101748000EB010BD00F086F8F5E700BF280A0020AB
:101758000000014008B5FFF76DFF08BD2DE9F04313
:101768008DB000240794089409940A940B94364B7E
:101778009A6942F040029A619A6902F04002069220
:10178800069A9A6942F010029A619A6902F0100268
:101798000592059A9A6942F008029A619A6902F0DC
:1017A80008020492049A9A6942F480729A619A69CA
:1017B80002F480720392039A9A6942F020029A61B5
:1017C8009A6902F020020292029A9A6942F004028F
:1017D8009A619B6903F004030193019BDFF86C8015
:1017E8002023C8F814301A4E2123736141F61803D8
:1017F80007930823089301250B9507A9404600F095
:101808009DFD42F22009CDF81C9008950227099702
:101818000A9407A9404600F091FD40F2011307938E
:10182800089509970A940B9407A9304600F086FD9D
:10183800CDF81C90089509970A9407A9304600F03E
:101848007DFD0DB0BDE8F083001002400018014096
:10185800000C014072B6FEE708B5264A136823F06B
:10186800070343F002031360224B1B6803F00703CE
:10187800022BF9D1204A136843F4803313601E4BBE
:101888001B6813F4003FFAD01B4A536823F47C13F7
:1018980043F4E8135360136843F080731360164BE6
:1018A8001B6813F0007FFAD0134B5A6822F0F0023D
:1018B8005A605A6822F4E06242F480625A605A68B8
:1018C80022F460525A605A6822F0030242F002027F
:1018D8005A60094B5B6803F00C03082BF9D10748E1
:1018E80000F0CCFD0F2000F0FBF800B908BDFFF7B1
:1018F800B1FF00BF002002400010024000A24A04CD
:1019080008B500F013F9FFF7A7FFFFF727FFFFF768
:10191800D3FE00F069F800F079FE00F099FEFCE7CC
:1019280082B00E4B9A6942F001029A619A6902F0FC
:1019380001020092009ADA6942F08052DA61DB69AA
:1019480003F080530193019B054A536823F0E06339
:1019580043F00073536002B0704700BF00100240AC
:1019680000000140FEE7FEE7FEE7FEE7FEE77047FE
:101978007047704708B500F0EBF808BD01207047C4
:1019880008B505F063F9162303604FF0FF3008BD72
:1019980008B54FF0FF31FFF7F3FFFEE710B5034638
:1019A8000C4A0D490D48006840B10C4800680344D2
:1019B800521A934206D8094A136010BD0748084CCA
:1019C8000460F2E705F042F90C2303604FF0FF30A2
:1019D800F3E700BF0000012000040000700A0020A7
:1019E800700B00207047000008B50A480A4B0360D6
:1019F8004FF4E133436000238360C36003610C222A
:101A080042618361C36100F027FB00B908BDFFF79D
:101A180021FFFBE7740A00200038014010B586B0AA
:101A2800002302930393049305930268174B9A4289
:101A380001D006B010BD03F558439A6942F48042BC
:101A48009A619A6902F480420092009A9A6942F077
:101A580004029A619B6903F004030193019B4FF40C
:101A6800007302930223039303230593084C02A9EE
:101A7800204600F0DDF84FF48063029300230393BF
:101A8800049302A9204600F0D3F8D2E700380140B9
:101A980000080140FFF7A6FF0B480C490C4A002339
:101AA80002E0D458C4500433C4188C42F9D3094A0C
:101AB800094C002301E013600432A242FBD305F075
:101AC800CBF8FFF71DFF704700000020080A002030
:101AD8006C1F0108080A00206C0B0020FEE70000BC
:101AE80010B504460E4B18784FF47A73B3FBF0F335
:101AF8000C4A1068B0FBF3F000F086F868B90F2CB8
:101B080001D901200AE0002221464FF0FF3000F001
:101B180043F8054B1C60002000E0012010BD00BF09
:101B280004000020000000200800002008B5074A33
:101B3800136843F010031360032000F01BF80F2014
:101B4800FFF7CEFFFFF7ECFE002008BD00200240A3
:101B5800034A1168034B1B780B441360704700BF9E
:101B6800BC0A002004000020014B1868704700BF21
:101B7800BC0A0020074AD36823F4E0631B041B0C4B
:101B8800000200F4E060034343F0BF6343F4003312
:101B9800D360704700ED00E000B5194BDB68C3F374
:101BA8000223C3F1070CBCF1040F28BF4FF0040C4B
:101BB80003F1040EBEF1060F18D9033B4FF0FF3EA8
:101BC8000EFA0CFC21EA0C0199400EFA03F322EA02
:101BD8000303194300280BDB0901C9B200F1604077
:101BE80000F5614080F800135DF804FB0023E5E789
:101BF80000F00F000901C9B2024B1954F4E700BF05
:101C080000ED00E014ED00E00138B0F1807F0BD268
:101C18004FF0E0235861054AF02182F82310002094
:101C2800986107221A6170470120704700ED00E0B3
:101C380070B582B00024A446B0E0874DAA4210D007
:101C480007D9864DAA420CD005F58035AA4208D09E
:101C580013E0A5F58015AA4203D005F57025AA4220
:101C680007D18A68002A62D0012A5BD04361082420
:101C780003E0A5F58015AA42F3D0BEF1FF0F58D8AE
:101C88000646BEF1FF0F56D84FEA8C0233680F257F
:101C9800954023EA050304FA02F2134333604B68C4
:101CA80013F0805F78D06E4B9A6942F001029A6116
:101CB8009B6903F001030193019B4FEA9C02951C69
:101CC800684B53F825600CF003039D000F23AB40CD
:101CD80026EA0306644B984233D003F580639842A2
:101CE80000F0988003F58063984200F0958003F532
:101CF8008063984200F0928003F58063984200F078
:101D08008F8003F58063984219D006231AE0CC68C7
:101D1800B3E7CC680434B0E7CC680834ADE7CC68E6
:101D28000C34AAE703610824A7E70024A5E70424E4
:101D3800A3E7061DA5E7ACF108029200A6E7052374
:101D480000E00023AB4033430232464D45F82230D1
:101D58004B6813F4801F65D0444A936843EA0E0326
:101D680093604B6813F4001F62D0404AD36843EA7B
:101D78000E03D3604B6813F4003F5FD03B4A5368AF
:101D880043EA0E0353604B6813F4803F5CD0374A34
:101D9800136843EA0E0313600CF1010C0A6832FA67
:101DA8000CF357D0012303FA0CF302EA030E33EACB
:101DB8000202F1D14A68122A3FF63FAF122A3FF6D3
:101DC8005CAF01A555F822F06B1C0008171D000830
:101DD800211D0008331D0008831C0008831C00080F
:101DE800831C0008831C0008831C0008831C00084F
:101DF800831C0008831C0008831C0008831C00083F
:101E0800831C0008831C0008831C00081B1D000895
:101E1800271D0008012395E7022393E7032391E791
:101E280004238FE7114A936823EA0E03936098E727
:101E38000E4AD36823EA0E03D3609BE70B4A536824
:101E480023EA0E0353609EE7084A136823EA0E0349
:101E58001360A1E702B070BD00002210000031102D
:101E68000010024000000140000801400004014049
:101E78008368194201D001207047002070470AB1D9
:101E8800016170470904016170470000014B18683F
:101E9800704700BF0000002008B5FFF7F7FF044BAC
:101EA8005B68C3F30223034AD35CD84008BD00BF74
:101EB80000100240B8EA000808B5FFF7E7FF044B36
:101EC8005B68C3F3C223034AD35CD84008BD00BF94
:101ED80000100240B8EA000860B370B50E46154617
:101EE80004468369B3F5807F26D090F84130E3B18A
:101EF800214651F8080B00F0A3F9A2683146206882
:101F080000F0D2F9236BA2682946606800F0F4F962
:101F18002268A16852F8213043F0010342F82130C9
:101F2800012384F84130002070BD80F84030FFF76D
:101F380011FCDDE7012070470120F5E710B50446E4
:101F48000268136923F44053C1680B431361836823
:101F58000269134342691A430168CB6823F4B053FA
:101F680023F00C031343CB600268536923F44073D6
:101F780081690B4353610268134B9A4220D0FFF7E3
:101F88008BFF024602EB820202EB820263689B002F
:101F9800B2FBF3F20D48A0FB02314909642303FBAD
:101FA80011231B013233A0FB03235B0903F0F0026A
:101FB80002EB011203F00F03216813448B6010BD7C
:101FC800FFF77AFF0246DDE7003801401F85EB5135
:101FD8002DE9F84305460F4616469946DDF8208058
:101FE8002C68246837EA04030CBF4FF0010C4FF04B
:101FF800000CB4452DD1B8F1FF3FF1D0B8F1000F76
:1020080005D0FFF7B1FDA0EB09004045E8D92A68E3
:1020180002F10C0353E8003F23F4D0730C3242E87A
:1020280000310029F3D12A6802F1140353E8003F74
:1020380023F00103143242E800310029F3D12023B0
:1020480085F8413085F84230002385F84030032078
:1020580000E00020BDE8F88360B310B5044690F8AE
:10206800413013B3242384F841302268D36823F421
:102078000053D3602046FFF761FF2268136923F4F9
:10208800904313612268536923F02A03536122683D
:10209800D36843F40053D36000206064202384F89D
:1020A800413084F84230606310BD80F84030FFF75B
:1020B800B5FCD7E7012070472DE9F04182B01E46F4
:1020C80090F84130DBB2202B4BD104460D469046A8
:1020D80000294AD00AB9012044E00023436421239F
:1020E80080F84130FFF740FD0746A4F82480A4F8A3
:1020F8002680A368B3F5805F02D04FF000080FE098
:102108002369FBB14FF000080AE038F8023B226867
:10211800C3F308035360E28C92B2013A92B2E284AC
:10212800E38C9BB28BB100963B460022802120466F
:10213800FFF74EFFD8B9002DE7D015F8012B23681B
:102148005A60E8E7A8460025EAE700963B460022E1
:1021580040212046FFF73CFF58B9202384F841303E
:1021680000E0022002B0BDE8F0810120FAE7032078
:10217800F8E70320F6E72DE9F04182B01E4690F813
:102188004230DBB2202B53D104460D46904600293D
:1021980052D00AB901204CE000234364222280F87F
:1021A80042200363FFF7E0FC0746A4F82C80A4F85C
:1021B8002E80A368B3F5805F02D04FF0000817E0C7
:1021C800236913B14FF0000812E0A84600250FE07C
:1021D80023685B68C3F3080328F8023B03E023681D
:1021E8005B682B700135E28D92B2013A92B2E285BA
:1021F800E38D9BB2BBB100963B46002220212046CE
:10220800FFF7E6FED0B9002DE2D0A368B3F5805FF2
:10221800E5D013B92369002BE1D023685B6803F08C
:102228007F032B70DEE7202384F84230002000E093
:10223800022002B0BDE8F0810120FAE70320F8E7A8
:1022480010B40A6850F8223023F0010340F8223015
:102258008B68082B24D000244A6822431343CA6899
:1022680013430A6913434A691343CA6913430A6A41
:1022780013434A6A13438A6A1343CA6A13430A6BAD
:1022880013438A6913434A6B1343096850F8214082
:10229800044A22401A4340F82120002010BC70470D
:1022A8004024D9E78000F0FF00B5013250F8223011
:1022B80003F0404C0B68D1F804E043EA0E13D1F860
:1022C80008E043EA0E23D1F80CE043EA0E43D1F8C4
:1022D80010E00EF1FF3E43EA0E53D1F814E0AEF1E0
:1022E800020E43EA0E6389690B434CEA030340F884
:1022F800223000205DF804FBB3F5804F05D06FF065
:10230800704340F822300020704730B450F8223033
:10231800094C1C400B684D6843EA05138D6843EA75
:1023280005238D692B43C96843EA0143234340F8D9
:102338002230002030BC70470000F0CF0B68C3F398
:102348000F2C9CFAACF2B2FA82F276E0A2F1080401
:102358004FF00113A34043F080634C68082C2CD045
:102368001D0E93FAA3F4B4FA84F4A4004FF00F0EF0
:102378000EFA04F4465926EA040493FAA3FEBEFAB8
:102388008EFE4FEA8E0E4E6806FA0EFE44EA0E04E2
:1023980044514C68012C1ED0092C1CD001323CFA47
:1023A80002F347D00123934013EA0C0FF6D0072A13
:1023B800CCD840F201139340CFE70D69C6681C0AD8
:1023C80026EA132694FAA4F4B4FA84F405FA04F479
:1023D8003443C460C4E74FEA136E50F80E4093FAD2
:1023E800A3F5B5FA85F5AD00032606FA05F524EA46
:1023F800050493FAA3F5B5FA85F5AD008E6806FADB
:1024080005F5254340F80E50CC6893FAA3F6B6FAC2
:1024180086F6B600042707FA06F625EA060593FAB3
:10242800A3F3B3FA83F39B0004FA03F32B4340F8B6
:102438000E30B3E70020F0BD01323CFA02F306D0BB
:102448000123934013EA0C0FF6D0F0B5AFE7002054
:10245800704782B04FF0E0231B690193019BB0F1F4
:10246800FF3F00D0013038B14FF0E0231B6913F46F
:10247800803FF8D00138F6E702B07047014B18608A
:10248800704700BF0000002008B503F075FD08BDC7
:1024980010B5044603F036FD230A5B00DBB2603B4F
:1024A80003F0FE0003F000FE03F098FDE0B203F035
:1024B800FBFD03F093FD03F025FDA12003F0F4FDDF
:1024C80003F08CFD002003F01FFE044603F03AFDE4
:1024D800204610BD38B504460D4603F013FD230A07
:1024E8005B00DBB2603B03F0FE0003F0DDFD03F0B0
:1024F80075FDE0B203F0D8FD03F070FD284603F047
:10250800D3FD03F06BFD03F01DFD0A20FFF7A1FFCB
:1025180038BD70B50C4607E0461CB6B2FFF7B8FFE9
:1025280004F8010B2A463046531E9DB2002AF3D107
:1025380070BD70B504460E4607E016F8011B20462C
:10254800FFF7C8FF0134A4B22A46531E9DB2002AE1
:10255800F3D170BD08B50A4B9B6813F0080F00D083
:1025680008BD0A20FFF775FF054B9B6813F0080F9D
:10257800F6D1034B9B6813F0080FFAD0F0E700BFC1
:102588000018014008B50A4B9B6813F0100F00D0E3
:1025980008BD0A20FFF75DFF054B9B6813F0100F7D
:1025A800F6D1034B9B6813F0100FFAD0F0E700BF89
:1025B8000018014010B584B0124BA3FB00239B09FF
:1025C8000293114A14684FF47A7202FB1300FEF763
:1025D80053FB2146FEF7A8FBFEF7F6FC0190029B91
:1025E80013B90023039306E00298FFF732FFF8E7D8
:1025F800039B01330393039A019B9A42F8D104B0D9
:1026080010BD00BFD34D6210C00A002070B50C4841
:1026180003F0A8FD0B4D20246C610B4E346100F0D3
:10262800C1FF00F05FFD4FF6FF7000F0A1FF01232E
:102638002B61064B1B6898472C61746170BD00BF05
:10264800740A0020000C014000180140140000200A
:1026580008B5FFF77FFFFFF795FF08BD08B5022013
:10266800FFF7A8FF08BD000038B50F4D01224FF451
:1026780000712846FFF703FC0C4C0122022120467A
:10268800FFF7FDFBFFF7EAFF00224FF40071284631
:10269800FFF7F5FBFFF7E2FF002202212046FFF7D4
:1026A800EEFBFFF7DBFF38BD001C0140000C0140CA
:1026B80010B50C4C00224FF400712046FFF7DFFBE9
:1026C800FFF7CCFF012202210748FFF7D8FBFFF7ED
:1026D800C5FF01224FF400712046FFF7D0FBFFF73A
:1026E800BDFF10BD001C0140000C014000B587B0C3
:1026F800154B9A6942F008029A619A6902F0080239
:102708000092009A9A6942F080029A619B6903F0EC
:1027180080030193019B02230293012303930493F3
:102728000323059302A90948FFF782FA4FF40073BF
:1027380002931123039302A90548FFF779FAFFF7DB
:10274800B7FF07B05DF804FB00100240000C014021
:10275800001C014038B501224FF400711348FFF7FF
:102768008EFBFFF77BFF012202211148FFF787FB51
:10277800FFF774FF00244FF400710C48FFF778FB53
:10278800054648B10134E4B2FA2C02D8FFF766FFD7
:10279800F1E7FFF78DFF0125002202210448FFF72A
:1027A8006EFBFFF75BFF284638BD00BF001C0140E9
:1027B800000C014038B5104C00224FF4007120463F
:1027C800FFF75DFBFFF74AFF0C4D01220221284667
:1027D800FFF755FBFFF742FF002202212846FFF7CB
:1027E8004EFBFFF73BFF01224FF400712046FFF735
:1027F80046FBFFF733FF38BD001C0140000C0140C9
:1028080010B501224FF400710A48FFF738FBFFF7B3
:1028180025FF094C012202212046FFF730FBFFF774
:102828001DFF002202212046FFF729FBFFF716FFB4
:1028380010BD00BF001C0140000C014070B50446EB
:10284800002518E000224FF400711448FFF717FB29
:10285800FFF704FF124E012202213046FFF70FFB5B
:10286800FFF7FCFE002202213046FFF708FB640058
:10287800E4B20135EDB2072D09D814F0800FE1D08C
:1028880001224FF400710548FFF7F9FAE0E7012249
:102898004FF400710148FFF7F2FA70BD001C0140C7
:1028A800000C014070B506460024254608E00022C9
:1028B80002211248FFF7E3FAFFF7D0FE0135EDB227
:1028C800072D12D86400E4B2012202210B48FFF759
:1028D800D6FAFFF7C3FE4FF400710948FFF7C8FAAC
:1028E8000028E4D00134E4B2E1E71EB9FFF788FF1D
:1028F800204670BDFFF75EFFFAE700BF000C0140FD
:10290800001C0140F8B504460F461546FFF7ACFE1B
:102918007020FFF793FFFFF71DFFE0B2FFF78EFF70
:10292800FFF718FF0026344601E00134E4B2AC4258
:1029380007D2385DFFF782FFFFF70CFF0646002835
:10294800F3D0FFF7B5FE3046F8BD70B504460E4625
:102958001546FFF789FE7020FFF770FFFFF7FAFEB4
:10296800E0B2FFF76BFFFFF7F5FEFFF77DFE712082
:10297800FFF764FFFFF7EEFE002408E0681E201A48
:1029880018BF0120FFF78EFF30550134E4B2AC4286
:10299800F4D3FFF78DFE70BD2DE9F04188B0334BBD
:1029A8009A6942F080029A619A6902F08002019263
:1029B800019A9A6942F080029A619B6903F0800348
:1029C8000293029B4FF40067049701240594069430
:1029D8004FF00308CDF81C80254E04A93046FFF7B8
:1029E80027F94FF480630493002505950694CDF8E4
:1029F8001C8004A93046FFF71BF9FFF777FE2A462B
:102A080039463046FFF73BFA1420FFF722FD2246ED
:102A180039463046FFF733FA3220FFF71AFD8DF8B2
:102A28000C50224603A92846FFF76CFF224603A94B
:102A3800A420FFF767FF16238DF80C30224603A960
:102A48008020FFF75FFF0C238DF80C3022460DEB3A
:102A580003018820FFF756FF022203A9A120FFF7F0
:102A680074FF204608B0BDE8F08100BF00100240A6
:102A7800001C014030B583B000238DF807305F4B50
:102A88001A780132D2B21A705D4BA3FB0213DB082D
:102A980003EB83035900511A11F0FF0F02D0092AE2
:102AA80000F28A8001220DF107010220FFF74DFF95
:102AB8009DF8070000F00F0000287ED0052801D9F6
:102AC80000207AE04FF6FF738340DB436FEA8343CD
:102AD8006FEA93434B4A93860420FFF7BAFC00241D
:102AE8002DE0494B1A889DF800301B0203F47063EF
:102AF8009DF801100B44D31A4249221D01EB4202F2
:102B080093809DF802301B0203F470639DF8032044
:102B1800134404F1100221F812309DF8003003F03C
:102B2800F003802B09D0374A05F11003002122F861
:102B380013102B1D02EB430399800134E4B2042CDB
:102B48002DD8304B9B8E2546234113F0010FF4D02E
:102B5800042269462D4B33F81400FFF7F6FE294B83
:102B680093F8443013F0010FBBD09DF800301B02DE
:102B780003F470639DF801201344224A04F1100104
:102B880022F811309DF802301B0203F470639DF89F
:102B980003100B44211D02EB41029380BDE7194B42
:102BA8009B8923B9174B1B8C0BB98DF80730134B36
:102BB80000221A70012000E000209DF8073013F071
:102BC8001F0F0DD10F4A938EB2F93420002A10DB63
:102BD8000C4A4FF6FF719181118403F46043938688
:102BE800064B1B78F02B02D9044B0A221A7003B04B
:102BF80030BDC3F30E03034A9386F1E7C40A0020ED
:102C0800CDCCCCCC14000020100B0020C0EA00086A
:102C1800F8B504460F461546FFF726FD2820FFF7AE
:102C28000DFEFFF797FD200AFFF708FEFFF792FD5C
:102C3800E0B2FFF703FEFFF78DFD0026344601E002
:102C48000134E4B2AC4207D2385DFFF7F7FDFFF775
:102C580081FD06460028F3D0FFF72AFD3046F8BD6F
:102C680070B504460E461546FFF7FEFC2820FFF710
:102C7800E5FDFFF76FFD200AFFF7E0FDFFF76AFDAE
:102C8800E0B2FFF7DBFDFFF765FDFFF7EDFC29205C
:102C9800FFF7D4FDFFF75EFD002408E0681E201A48
:102CA80018BF0120FFF7FEFD30550134E4B2AC42F5
:102CB800F4D3FFF7FDFC70BD2DE9F04389B03C4B20
:102CC8009A6942F080029A619A6902F08002009241
:102CD800009A9A6942F080029A619B6903F0800326
:102CE8000193019B4FF40068CDF8108001260596EA
:102CF8000696032707972F4D04A92846FEF798FF45
:102D08004FF48069CDF81090002405940696079733
:102D180004A92846FEF78CFFFFF7E8FC2246414647
:102D28002846FFF7ACF80A20FFF793FB32464146E6
:102D38002846FFF7A4F80A20FFF78BFBCDF8109080
:102D480005940694079704A92846FEF771FF6420A6
:102D5800FFF77FFB042202A948F24010FFF780FF2B
:102D68008DF80C4002A9144803F0ECFF134902A89F
:102D7800FEF74AF910B9124B0A221A7002238DF88D
:102D88000830012202A948F24000FFF741FF0A205B
:102D9800FFF75FFB00248DF80840012202A948F2E2
:102DA8004000FFF735FF204609B0BDE8F08300BFBB
:102DB80000100240001C0140CCEA0008D8EA0008D4
:102DC8000C00002010B584B08DF8070000238DF8A2
:102DD8000B309C4B1A780132D2B21A709A4BA3FB73
:102DE8000213DB0803EB8303A2EB430313F0FF0F8B
:102DF80002D0092A00F2FF8001220DF1070148F2F2
:102E08004E10FFF72DFF9DF807309DF90720002A87
:102E180023DB9DF8070000F00F00002800F0EC808D
:102E28008A4B1A78904200F2F6804FF6FF7383407F
:102E380087498C8EDB436FEA83436FEA93438B8623
:102E48008889D31C01EB430398800B8C0F3221F83F
:102E5800123000238DF80B3067E07C4A127803F0BB
:102E68000F039A42D5D300238DF80B3001220DF1C0
:102E78000B0148F24E10FFF7CBFECAE7744B93F8EC
:102E8800443013F0010F1AD09DF80D209DF80C3036
:102E98009DF80B1003EB02236D4A01F1100022F894
:102EA80010309DF80F009DF80E3003EB00239BB205
:102EB800C3F54873043102EB4102938030E09DF87A
:102EC8000D209DF80C109DF80B3001EB0221604895
:102ED8001A1D00EB420291809DF80F109DF80E20FC
:102EE80002EB0122103320F8132019E0594B1988FE
:102EF8009DF80F209DF80E3003EB02239BB29DF83E
:102F08000B20CB1A5248111D00EB41018B809DF814
:102F18000D109DF80C3003EB0123103220F812300D
:102F28009DF80B3001338DF80B309DF80B00474BA3
:102F38001B7898422FD2464B9B8E034113F0010F0A
:102F4800EED0042203A9444B33F81000FFF788FEA3
:102F5800404B9A8845F210539A428FD03C4B93F8D5
:102F6800443013F0010FC1D09DF80D209DF80C10CE
:102F78009DF80B3001EB022135481A1D00EB420287
:102F880091809DF80F109DF80E2002EB012210335E
:102F980020F81320C4E72E4A91892E4A12889142BC
:102FA80005D82B4A118C2B4A528891421ED99DF87C
:102FB800072012F00E0F09D0254BDA899A815A8C16
:102FC8001A84204B00221A70012015E0204AD91CCF
:102FD80002EB4101898891810F3332F81330138451
:102FE80080238DF807309486012005E0154B0022D8
:102FF8001A70012000E000209DF8073003F08F03CD
:10300800802B0AD00F4B1B78F02B02D90D4B0A22CC
:103018001A7004B010BD0020EEE70D4A938EB2F985
:103028003420002A08DB0A4A4FF6FF719181118487
:1030380003F460439386E5E7C3F30E03044A9386DB
:10304800E0E700BFC50A0020CDCCCCCC0C000020A6
:1030580014000020100B0020E0EA000882B0054BA5
:10306800B3F800319BB2ADF80630BDF8060080B267
:1030780002B070470007006C82B0ADF80600BDF8DA
:1030880006309BB2ADF80630BDF806309BB2024A56
:10309800A2F8003102B070470007006C82B0ADF8AA
:1030A8000600BDF806309BB2ADF80630BDF8063014
:1030B8009BB2024AA2F8FE3002B070470007006CCB
:1030C800024BA3F8FE00A3F8001170470007006C3C
:1030D800024B1A89024BA3F8FE207047100B002000
:1030E8000007006C08B5074B9A8845F210539A42BE
:1030F80003D02920FFF7D2FF08BD4FF42450FFF773
:10310800CDFFF9E7100B002070B505460C46404B83
:103118009B8841F66312934217D045F210529342AE
:1031280057D03B4E7089FFF7B9FF280AFFF7A4FF75
:10313800E8B2FFF7A1FFB089FFF7B0FF200AFFF759
:103148009BFFE0B2FFF798FF70BD314B9B7953BBF3
:103158002F4B1888451BADB2013DADB25889FFF71A
:103168009DFF0020FFF788FF0020FFF785FF280A52
:10317800FFF782FFE8B2FFF77FFF254DA889FFF729
:103188008DFF200AFFF778FFE0B2FFF775FF688828
:103198000138C0F30F20FFF76FFF68880138C0B20D
:1031A800FFF76AFFD0E71A4E7089FFF777FF280A02
:1031B800FFF762FFE8B2FFF75FFF30880138C0F31E
:1031C8000F20FFF759FF30880138C0B2FFF754FFCE
:1031D800D3E70F4E7089FFF761FF280AFFF74CFF0E
:1031E8007089013080B2FFF759FFE8B2FFF744FF5A
:1031F800B089FFF753FF200AFFF73EFFB08901307F
:1032080080B2FFF74BFFE0B2FFF736FF9CE700BF45
:10321800100B002010B5744B9B79012B10D02BB9E3
:10322800714B9A8841F663139A420FD001380628E9
:1032380000F28480DFE800F07472706E6C6A160029
:10324800694A918841F663129142E8D00728EDD87F
:10325800DFE800F072706C6E06046A68002402E011
:10326800802400E0E024604B9B8845F21052934292
:1032780066D0362049F24132934203D047F2897230
:10328800934201D144F008042146FFF719FF564B39
:103298009B8841F6631293420AD014F0200F52D053
:1032A800514A11885288914202D24F480280418087
:1032B80045F2105293424FD04B4C6089FFF7EEFE17
:1032C8000020FFF7D9FE0020FFF7D6FE208801383E
:1032D800C0F30F20FFF7D0FE20880138C0B2FFF7F7
:1032E800CBFEA089FFF7DAFE0020FFF7C5FE00201D
:1032F800FFF7C2FE60880138C0F30F20FFF7BCFE5D
:1033080060880138C0B2FFF7B7FE10BDA024AAE755
:103318006024A8E72024A6E7C024A4E74024A2E765
:103328008024A0E740249EE7C0249CE720249AE755
:10333800602498E7E02496E7A02494E7002492E725
:103348004FF4585096E7284A118852889142AFD9CD
:10335800254802804180ABE7234C6089FFF79EFE39
:103368000020FFF789FE6089013080B2FFF796FEE2
:103378000020FFF781FE6089023080B2FFF78EFEE1
:1033880020880138C0F30F20FFF776FE60890330EC
:1033980080B2FFF783FE20880138C0B2FFF76CFEC9
:1033A800A089FFF77BFE0020FFF766FEA0890130A9
:1033B80080B2FFF773FE0020FFF75EFEA08902309F
:1033C80080B2FFF76BFE60880138C0F30F20FFF76B
:1033D80053FEA089033080B2FFF760FE6088013891
:1033E800C0B2FFF749FE90E7100B002010B5144655
:1033F800FFF78AFEFFF76CFEA4B2024BA3F8004168
:1034080010BD00BF0007006C10B50446BE20FFF7D2
:1034180045FE0520FFF730FE2046FDF753F80CA3C4
:10342800D3E90023FDF7B8F8FDF750FB80B2FFF7AA
:1034380023FE0120FFF720FEFF20FFF71DFE0020DE
:10344800FFF71AFE0020FFF717FE10BDAFF300804C
:10345800666666666666044008B5444B987100283F
:1034680043D1F0221A804FF4A0725A809B8845F20B
:103478001052934212D041F6631293421FD03B4A36
:103488002C2111812A2151812B21918145F2103261
:10349800934222D00020FFF7BDFE08BD334A4FF407
:1034A800305111814FF4285151814FF42C519181A1
:1034B8004FF4F07111804FF448715180E6E72B4AC0
:1034C8002C2111812B2151812A2191814FF4F071F6
:1034D80011804FF448715180D8E7244B4FF4A07203
:1034E8001A804FF4F0725A80D4E7204B4FF4A07240
:1034F8001A80F0225A809B8845F21052934216D0C7
:1035080041F66312934223D0184A2C2111812A21B3
:1035180051812B21918145F210329342BAD1134B3C
:103528004FF4F0721A804FF4A0725A80B2E70F4A33
:103538004FF4305111814FF4285151814FF42C51DF
:1035480091814FF4487111804FF4F0715180E2E796
:10355800064A2C2111812A2151812B2191814FF476
:10356800487111804FF4F0715180D4E7100B00209E
:1035780038B50546094B1A885C8802FB04F400211B
:103588000846FFF7C1FDFFF7A3FD002303E0044A47
:10359800A2F800510133A342F9D338BD100B002023
:1035A8000007006C2DE9F04198B0AE4B9A6942F4DF
:1035B80080729A619A6902F480720192019A9A69FA
:1035C80042F020029A619A6902F020020292029A5D
:1035D8009A6942F020029A619A6902F020020392E5
:1035E800039A9A6942F480729A619A6902F4807225
:1035F8000492049A9A6942F008029A619B6903F05E
:1036080008030593059B4FF48055149502231593E1
:103618000124169403231793934F14A93846FEF7F1
:1036280007FB20231493DFF8448214A94046FEF7D1
:10363800FFFA1026149614A94046FEF7F9FA1494D6
:1036480014A93846FEF7F4FA1494159414A9884876
:10365800FEF7EEFA87484FF02043036003F58273C4
:103668004360062383600023C36046618361C361AE
:1036780043628562C3624FF480420263436383639B
:103688000D930E930F220F921393069307930894AA
:103698000C9306AA0DA9FEF71FFC3220FEF7D9FEEF
:1036A800D320FFF7FBFCFFF7D9FC734CA080FFF792
:1036B800D5FCA080FFF7D2FCA0800002A080FFF715
:1036C800CDFCA388184380B2A08049F241339842C8
:1036D8002DD1694CA188694803F034FBA38847F2CF
:1036E8008972934200F0AC8049F24132934200F073
:1036F800AA8045F21032934200F0A88045F2105299
:10370800934200F0A68041F66312934200F0A48031
:103718000020FFF7A1FE012211465548FEF7AFFB36
:103728004FF6FF70FFF724FF18B0BDE8F0810420C2
:10373800FFF7B4FCFFF792FCA080FFF78FFCA08096
:10374800FFF78CFCA0800002A080FFF787FCA3880D
:10375800184380B2A08048F2525398426CD0464B2E
:103768009A8847F289739A42B3D0D420FFF796FC1F
:10377800FFF774FC404CA080FFF770FCA080FFF7B7
:103788006DFCA0800002A080FFF768FCA3881843A6
:1037980080B2A08045F2103398429AD055214FF458
:1037A8007040FFF78DFCAA214FF20100FFF788FC5B
:1037B80052214FF20200FFF783FC08214FF2030069
:1037C800FFF77EFC01214FF20400FFF779FC4FF46C
:1037D8004540FFF763FCFFF741FCA0800002A08092
:1037E8004CF20150FFF75AFCFFF738FCA388184346
:1037F800A0800520FEF72DFEA28845F210539A42BC
:103808003FF467AFA120FFF749FCFFF727FCA08032
:10381800FFF724FCA0800002A080FFF71FFCA3880C
:1038280003439BB2A38045F2617293427FF451AF88
:1038380041F66312A2804CE747F28972A2808EE7B4
:1038480000F0C3F964E700F094FA61E700F0A7FB21
:103858005EE701F01DFB5BE702F098FA6420FFF7D2
:10386800D3FD55E70010024000200140001401403C
:10387800000C0140C80A0020100B0020F4EA0008E0
:103888002DE9F04107460E469846069D141AA4B243
:103898000134A4B209E0A9B20A4BA3F8001101321D
:1038A80092B2A242F7D30136B6B2464507D831469E
:1038B8003846FFF729FCFFF70BFC0022F1E7BDE8CB
:1038C800F08100BF0007006C2DE9F04F85B0BDF80E
:1038D800384001948046A2EB000A8946A3EB010B0D
:1038E800BAF1000F0DDD01220292BBF1000F14DDC9
:1038F80001230393DA451CDD564600252F462C4646
:103908001BE0BAF1000F05D0A0EB020A4FF0FF321E
:103918000292EAE7CDF808A0E7E7BBF1000F05D06F
:10392800A1EB030B4FF0FF330393E3E7CDF80CB0A3
:10393800E0E75E46E1E70134A4B2731C9C4213DC65
:10394800019A1FFA89F11FFA88F0FFF74FFD5744D3
:103958005D44BE4202DABF1B029B9844AE42EADADB
:10396800AD1B039B9944E6E705B0BDE8F08F2DE950
:10397800F04F87B0814688461E4601925200C2F138
:1039880003030293002708E0019ABB1A9B000A333D
:10399800029919440291531E0193019B9F4254DCE2
:1039A800BDB205EB090B1FFA8BFBBDF80440A8EB71
:1039B80004039BB23246039319465846FFF716FD97
:1039C80004EB090A1FFA8AFAA8EB05039AB2104613
:1039D8003246049001465046FFF708FD05EB080300
:1039E8009AB294463246CDF814C061465046FFF765
:1039F800FDFC04EB080A1FFA8AFA3246514658467B
:103A0800FFF7F4FCA9EB0505ADB23246514628464E
:103A1800FFF7ECFCA9EB0404A4B232460599204652
:103A2800FFF7E4FC324603992846FFF7DFFC3246ED
:103A380004992046FFF7DAFC0137029A002AA3DA34
:103A4800BB0006331A440292A7E707B0BDE8F08F1F
:103A58002DE9F04F85B0824688461F469DF838B05C
:103A6800BDF83C30019317F0070318BF012303EB9F
:103A7800D703790801FB03F3DBB20293A2F1200319
:103A8800DBB2A7F10C02142A5ED8DFE802F00B5D66
:103A98005D5D155D5D5D5D5D5D5D1A5D5D5D5D5DD9
:103AA8005D5D210003EB4303294A02EB8303039383
:103AB80044464FF000093FE0264A02EB0313039304
:103AC800F6E703EBC303244A02EB83030393EFE710
:103AD800224A02EB83130393EAE7019A21465046F0
:103AE800FFF784FC6D00EDB20134A4B21C4B5B8877
:103AF800A34229D9A4EB08039F4210D00136F6B29D
:103B0800072E15D815F0800FE7D1BBF1000FE9D1CA
:103B1800144B1A6821465046FFF768FCE2E70AF1A1
:103B2800010A1FFA8AFA0E4B1B8853450CD94446E2
:103B380009F101095FFA89F9029B994504D2039BAF
:103B480013F809500026DBE705B0BDE8F08F00BF89
:103B580000EB000874EF000864F50008C0020108D3
:103B6800100B0020100000202DE9F04F83B0824692
:103B78000D469DF830700D9EBDF838B002441FFA0E
:103B880082F90B441FFA83F804460EE0454519D222
:103B9800CDF804B0002300933B4629462046FFF7A2
:103BA80057FF04EB5704A4B201363278A2F1200380
:103BB800DBB25E2B06D84C45E8D35FFA8AF43D4465
:103BC800ADB2E3E703B0BDE8F08F08B51120FFF709
:103BD80065FA7820FEF73DFC3620FFF75FFA0020F3
:103BE800FFF74AFA3A20FFF759FA0520FFF744FA97
:103BF800B220FFF753FA0C20FFF73EFA0C20FFF72C
:103C08003BFA0020FFF738FA3320FFF735FA332064
:103C1800FFF732FAB720FFF741FA3520FFF72CFA01
:103C2800BB20FFF73BFA3220FFF726FAC020FFF748
:103C380035FA0C20FFF720FAC220FFF72FFA0120EF
:103C4800FFF71AFAC320FFF729FA1020FFF714FA32
:103C5800C420FFF723FA2020FFF70EFAC620FFF74B
:103C68001DFA0F20FFF708FAD020FFF717FAA42053
:103C7800FFF702FAA120FFF7FFF9E020FFF70EFA9D
:103C8800D020FFF7F9F90020FFF7F6F90220FFF737
:103C9800F3F90720FFF7F0F90A20FFF7EDF92820DC
:103CA800FFF7EAF93220FFF7E7F94420FFF7E4F9D4
:103CB8004220FFF7E1F90620FFF7DEF90E20FFF7B3
:103CC800DBF91220FFF7D8F91420FFF7D5F91720F0
:103CD800FFF7D2F9E120FFF7E1F9D020FFF7CCF99F
:103CE8000020FFF7C9F90220FFF7C6F90720FFF700
:103CF800C3F90A20FFF7C0F92820FFF7BDF93120E2
:103D0800FFF7BAF95420FFF7B7F94720FFF7B4F9DE
:103D18000E20FFF7B1F91C20FFF7AEF91720FFF7C7
:103D2800ABF91B20FFF7A8F91E20FFF7A5F92A20F9
:103D3800FFF7B4F90020FFF79FF90020FFF79CF97F
:103D48000020FFF799F9EF20FFF796F92B20FFF7EE
:103D5800A5F90020FFF790F90020FFF78DF9012061
:103D6800FFF78AF93F20FFF787F92920FFF796F92F
:103D780008BD08B5CF20FFF791F90020FFF77CF9BF
:103D8800C120FFF779F93020FFF776F9ED20FFF72A
:103D980085F96420FFF770F90320FFF76DF9122009
:103DA800FFF76AF98120FFF767F9E820FFF776F94E
:103DB8008520FFF761F91020FFF75EF97A20FFF7F9
:103DC8005BF9CB20FFF76AF93920FFF755F92C206A
:103DD800FFF752F90020FFF74FF93420FFF74CF9AD
:103DE8000220FFF749F9F720FFF758F92020FFF7DD
:103DF80043F9EA20FFF752F90020FFF73DF90020C8
:103E0800FFF73AF9C020FFF749F91B20FFF734F90B
:103E1800C120FFF743F90120FFF72EF9C520FFF76E
:103E28003DF93020FFF728F93020FFF725F9C720A2
:103E3800FFF734F9B720FFF71FF93620FFF72EF9FF
:103E48004820FFF719F93A20FFF728F95520FFF71E
:103E580013F9B120FFF722F90020FFF70DF91A2016
:103E6800FFF70AF9B620FFF719F90A20FFF704F956
:103E7800A220FFF701F9F220FFF710F90020FFF761
:103E8800FBF82620FFF70AF90120FFF7F5F8E020F4
:103E9800FFF704F90F20FFF7EFF82A20FFF7ECF8F7
:103EA8002820FFF7E9F80820FFF7E6F80E20FFF7CB
:103EB800E3F80820FFF7E0F85420FFF7DDF8A92021
:103EC800FFF7DAF84320FFF7D7F80A20FFF7D4F80E
:103ED8000F20FFF7D1F80020FFF7CEF80020FFF7FA
:103EE800CBF80020FFF7C8F80020FFF7C5F8E1205D
:103EF800FFF7D4F80020FFF7BFF81520FFF7BCF84C
:103F08001720FFF7B9F80720FFF7B6F81120FFF7D9
:103F1800B3F80620FFF7B0F82B20FFF7ADF85620CE
:103F2800FFF7AAF83C20FFF7A7F80520FFF7A4F849
:103F38001020FFF7A1F80F20FFF79EF83F20FFF7AA
:103F48009BF83F20FFF798F80F20FFF795F82B20F4
:103F5800FFF7A4F80020FFF78FF80020FFF78CF890
:103F68000120FFF789F83F20FFF786F82A20FFF79E
:103F780095F80020FFF780F80020FFF77DF8002073
:103F8800FFF77AF8EF20FFF777F81120FFF786F8A8
:103F98007820FEF75EFA2920FFF780F808BD08B5FB
:103FA800ED20FFF77BF80120FFF766F8FE20FFF70A
:103FB80063F8EE20FFF772F8DE20FFF75DF82120A6
:103FC800FFF75AF8F120FFF769F80120FFF754F8D6
:103FD800DF20FFF763F81020FFF74EF8C420FFF743
:103FE8005DF88F20FFF748F8C620FFF757F8002044
:103FF800FFF742F8E220FFF73FF8E220FFF73CF82E
:10400800E220FFF739F8BF20FFF748F8AA20FFF7AA
:1040180033F8B020FFF742F80D20FFF72DF8002005
:10402800FFF72AF80D20FFF727F80020FFF724F8FC
:104038001120FFF721F80020FFF71EF81920FFF7DD
:104048001BF80020FFF718F82120FFF715F80020CB
:10405800FFF712F82D20FFF70FF80020FFF70CF8F4
:104068003D20FFF709F80020FFF706F85D20FFF76D
:1040780003F80020FFF700F85D20FEF7FDFF0020A1
:10408800FEF7FAFFB120FFF709F88020FEF7F4FFEA
:104098000020FEF7F1FF8B20FEF7EEFF0020FEF771
:1040A800EBFF9620FEF7E8FF0020FEF7E5FFB220C1
:1040B800FEF7F4FF0020FEF7DFFF0020FEF7DCFF2D
:1040C8000220FEF7D9FF0020FEF7D6FF0320FEF7F7
:1040D800D3FF0020FEF7D0FFB320FEF7DFFF00205C
:1040E800FEF7CAFF0020FEF7C7FF0020FEF7C4FF57
:1040F8000020FEF7C1FF0020FEF7BEFF0020FEF7FC
:10410800BBFF0020FEF7B8FF0020FEF7B5FF002038
:10411800FEF7B2FF0020FEF7AFFF0020FEF7ACFF6E
:104128000020FEF7A9FF0020FEF7A6FF0020FEF7FB
:10413800A3FF0020FEF7A0FF0020FEF79DFF002050
:10414800FEF79AFF0020FEF797FF0020FEF794FF86
:104158000020FEF791FF0020FEF78EFF0020FEF7FB
:104168008BFF0020FEF788FF0020FEF785FFB420B4
:10417800FEF794FF8B20FEF77FFF0020FEF77CFF01
:104188009620FEF779FF0020FEF776FFA120FEF7C4
:1041980073FF0020FEF770FFB520FEF77FFF0220B7
:1041A800FEF76AFF0020FEF767FF0320FEF764FFB3
:1041B8000020FEF761FF0420FEF75EFF0020FEF7F7
:1041C8005BFFB620FEF76AFF0020FEF755FF0020D0
:1041D800FEF752FFB720FEF761FF0020FEF74CFF05
:1041E8000020FEF749FF3F20FEF746FF0020FEF7BC
:1041F80043FF5E20FEF740FF0020FEF73DFF6420EE
:10420800FEF73AFF0020FEF737FF8C20FEF734FF59
:104218000020FEF731FFAC20FEF72EFF0020FEF74E
:104228002BFFDC20FEF728FF0020FEF725FF70207B
:10423800FEF722FF0020FEF71FFF9020FEF71CFF6D
:104248000020FEF719FFEB20FEF716FF0020FEF70F
:1042580013FFDC20FEF710FF0020FEF70DFFB8204B
:10426800FEF71CFF0020FEF707FF0020FEF704FF03
:104278000020FEF701FF0020FEF7FEFE0020FEF7FB
:10428800FBFE0020FEF7F8FE0020FEF7F5FE0020FA
:10429800FEF7F2FEBA20FEF701FF2420FEF7ECFE3F
:1042A8000020FEF7E9FE0020FEF7E6FE0020FEF7FC
:1042B800E3FEC120FEF7F2FE2020FEF7DDFE00201F
:1042C800FEF7DAFE5420FEF7D7FE0020FEF7D4FEF4
:1042D800FF20FEF7D1FE0020FEF7CEFEC220FEF73B
:1042E800DDFE0A20FEF7C8FE0020FEF7C5FE04200A
:1042F800FEF7C2FE0020FEF7BFFEC320FEF7CEFE8B
:104308003C20FEF7B9FE0020FEF7B6FE3A20FEF785
:10431800B3FE0020FEF7B0FE3920FEF7ADFE002008
:10432800FEF7AAFE3720FEF7A7FE0020FEF7A4FE40
:104338003C20FEF7A1FE0020FEF79EFE3620FEF789
:104348009BFE0020FEF798FE3220FEF795FE002027
:10435800FEF792FE2F20FEF78FFE0020FEF78CFE60
:104368002C20FEF789FE0020FEF786FE2920FEF7A6
:1043780083FE0020FEF780FE2620FEF77DFE00204B
:10438800FEF77AFE2420FEF777FE0020FEF774FE83
:104398002420FEF771FE0020FEF76EFE2320FEF7B4
:1043A8006BFE0020FEF768FE3C20FEF765FE00204D
:1043B800FEF762FE3620FEF75FFE0020FEF75CFE89
:1043C8003220FEF759FE0020FEF756FE2F20FEF79A
:1043D80053FE0020FEF750FE2C20FEF74DFE002075
:1043E800FEF74AFE2920FEF747FE0020FEF744FEAE
:1043F8002620FEF741FE0020FEF73EFE2420FEF7B1
:104408003BFE0020FEF738FE2420FEF735FE002094
:10441800FEF732FE2320FEF72FFE0020FEF72CFECB
:10442800C420FEF73BFE6220FEF726FE0020FEF7C2
:1044380023FE0520FEF720FE0020FEF71DFE842047
:10444800FEF71AFE0020FEF717FEF020FEF714FE16
:104458000020FEF711FE1820FEF70EFE0020FEF7E2
:104468000BFEA420FEF708FE0020FEF705FE18202C
:10447800FEF702FE0020FEF7FFFD5020FEF7FCFDD0
:104488000020FEF7F9FD0C20FEF7F6FD0020FEF7F0
:10449800F3FD1720FEF7F0FD0020FEF7EDFD952057
:1044A800FEF7EAFD0020FEF7E7FDF320FEF7E4FD46
:1044B8000020FEF7E1FDE620FEF7DEFD0020FEF716
:1044C800DBFDC520FEF7EAFD3220FEF7D5FD002012
:1044D800FEF7D2FD4420FEF7CFFD0020FEF7CCFD0D
:1044E8006520FEF7C9FD0020FEF7C6FD7620FEF721
:1044F800C3FD0020FEF7C0FD8820FEF7BDFD0020AB
:10450800FEF7BAFDC620FEF7C9FD2020FEF7B4FD70
:104518000020FEF7B1FD1720FEF7AEFD0020FEF7E4
:10452800ABFD0120FEF7A8FD0020FEF7A5FDC72082
:10453800FEF7B4FD0020FEF79FFD0020FEF79CFD6E
:104548000020FEF799FD0020FEF796FDC820FEF733
:10455800A5FD0020FEF790FD0020FEF78DFD002050
:10456800FEF78AFD0020FEF787FDC920FEF796FDBD
:104578000020FEF781FD0020FEF77EFD0020FEF7FB
:104588007BFD0020FEF778FD0020FEF775FD00207A
:10459800FEF772FD0020FEF76FFD0020FEF76CFDB0
:1045A8000020FEF769FD0020FEF766FD0020FEF7FB
:1045B80063FD0020FEF760FD0020FEF75DFD002092
:1045C800FEF75AFD0020FEF757FD0020FEF754FDC8
:1045D800E020FEF763FD1620FEF74EFD0020FEF7F3
:1045E8004BFD1C20FEF748FD0020FEF745FD21206D
:1045F800FEF742FD0020FEF73FFD3620FEF73CFDAA
:104608000020FEF739FD4620FEF736FD0020FEF7B4
:1046180033FD5220FEF730FD0020FEF72DFD64200B
:10462800FEF72AFD0020FEF727FD7A20FEF724FD7D
:104638000020FEF721FD8B20FEF71EFD0020FEF76F
:104648001BFD9920FEF718FD0020FEF715FDA82098
:10465800FEF712FD0020FEF70FFDB920FEF70CFD56
:104668000020FEF709FDC420FEF706FD0020FEF736
:1046780003FDCA20FEF700FD0020FEF7FDFCD22056
:10468800FEF7FAFC0020FEF7F7FCD920FEF7F4FC51
:104698000020FEF7F1FCE020FEF7EEFC0020FEF71C
:1046A800EBFCF320FEF7E8FC0020FEF7E5FCE12038
:1046B800FEF7F4FC1620FEF7DFFC0020FEF7DCFC1A
:1046C8001C20FEF7D9FC0020FEF7D6FC2220FEF7BE
:1046D800D3FC0020FEF7D0FC3620FEF7CDFC0020EE
:1046E800FEF7CAFC4520FEF7C7FC0020FEF7C4FC15
:1046F8005220FEF7C1FC0020FEF7BEFC6420FEF746
:10470800BBFC0020FEF7B8FC7A20FEF7B5FC0020C1
:10471800FEF7B2FC8B20FEF7AFFC0020FEF7ACFCE6
:104728009920FEF7A9FC0020FEF7A6FCA820FEF7BA
:10473800A3FC0020FEF7A0FCB920FEF79DFC00209A
:10474800FEF79AFCC420FEF797FC0020FEF794FCC5
:10475800CA20FEF791FC0020FEF78EFCD220FEF75F
:104768008BFC0020FEF788FCD820FEF785FC002093
:10477800FEF782FCE020FEF77FFC0020FEF77CFCC1
:10478800F320FEF779FC0020FEF776FCE220FEF726
:1047980085FC0520FEF770FC0020FEF76DFC0B2061
:1047A800FEF76AFC0020FEF767FC1B20FEF764FC9E
:1047B8000020FEF761FC3420FEF75EFC0020FEF7C7
:1047C8005BFC4420FEF758FC0020FEF755FC4F2008
:1047D800FEF752FC0020FEF74FFC6120FEF74CFC70
:1047E8000020FEF749FC7920FEF746FC0020FEF782
:1047F80043FC8820FEF740FC0020FEF73DFC972094
:10480800FEF73AFC0020FEF737FCA620FEF734FC42
:104818000020FEF731FCB720FEF72EFC0020FEF743
:104828002BFCC220FEF728FC0020FEF725FCC72041
:10483800FEF722FC0020FEF71FFCD120FEF71CFC2F
:104848000020FEF719FCD620FEF716FC0020FEF724
:1048580013FCDD20FEF710FC0020FEF70DFCF32012
:10486800FEF70AFC0020FEF707FCE320FEF716FC23
:104878000520FEF701FC0020FEF7FEFB0A20FEF7EC
:10488800FBFB0020FEF7F8FB1C20FEF7F5FB0020E1
:10489800FEF7F2FB3320FEF7EFFB0020FEF7ECFB00
:1048A8004420FEF7E9FB0020FEF7E6FB5020FEF768
:1048B800E3FB0020FEF7E0FB6220FEF7DDFB0020B3
:1048C800FEF7DAFB7820FEF7D7FB0020FEF7D4FBD3
:1048D8008820FEF7D1FB0020FEF7CEFB9720FEF7DD
:1048E800CBFB0020FEF7C8FBA620FEF7C5FB002087
:1048F800FEF7C2FBB720FEF7BFFB0020FEF7BCFBAC
:10490800C220FEF7B9FB0020FEF7B6FBC720FEF772
:10491800B3FB0020FEF7B0FBD120FEF7ADFB002073
:10492800FEF7AAFBD520FEF7A7FB0020FEF7A4FBA5
:10493800DD20FEF7A1FB0020FEF79EFBF320FEF72B
:104948009BFB0020FEF798FBE420FEF7A7FB012065
:10495800FEF792FB0020FEF78FFB0120FEF78CFB91
:104968000020FEF789FB0220FEF786FB0020FEF7F9
:1049780083FB2A20FEF780FB0020FEF77DFB3C200E
:10498800FEF77AFB0020FEF777FB4B20FEF774FB5F
:104998000020FEF771FB5D20FEF76EFB0020FEF79E
:1049A8006BFB7420FEF768FB0020FEF765FB842094
:1049B800FEF762FB0020FEF75FFB9320FEF75CFB2F
:1049C8000020FEF759FBA220FEF756FB0020FEF759
:1049D80053FBB320FEF750FB0020FEF74DFBBE2033
:1049E800FEF74AFB0020FEF747FBC420FEF744FB16
:1049F8000020FEF741FBCD20FEF73EFB0020FEF72E
:104A08003BFBD320FEF738FB0020FEF735FBDD200B
:104A1800FEF732FB0020FEF72FFBF320FEF72CFBFE
:104A28000020FEF729FBE520FEF738FB0020FEF703
:104A380023FB0020FEF720FB0020FEF71DFB0020D3
:104A4800FEF71AFB0220FEF717FB0020FEF714FB07
:104A58002920FEF711FB0020FEF70EFB3C20FEF795
:104A68000BFB0020FEF708FB4B20FEF705FB0020A0
:104A7800FEF702FB5D20FEF7FFFA0020FEF7FCFAC6
:104A88007420FEF7F9FA0020FEF7F6FA8420FEF704
:104A9800F3FA0020FEF7F0FA9320FEF7EDFA002073
:104AA800FEF7EAFAA220FEF7E7FA0020FEF7E4FA9A
:104AB800B320FEF7E1FA0020FEF7DEFABE20FEF78B
:104AC800DBFA0020FEF7D8FAC420FEF7D5FA00205A
:104AD800FEF7D2FACD20FEF7CFFA0020FEF7CCFA87
:104AE800D320FEF7C9FA0020FEF7C6FADC20FEF74D
:104AF800C3FA0020FEF7C0FAF320FEF7BDFA002043
:104B0800FEF7BAFAE620FEF7C9FA1120FEF7B4FA62
:104B18000020FEF7B1FA3420FEF7AEFA0020FEF7C7
:104B2800ABFA5620FEF7A8FA0020FEF7A5FA762081
:104B3800FEF7A2FA0020FEF79FFA7720FEF79CFA0C
:104B48000020FEF799FA6620FEF796FA0020FEF795
:104B580093FA8820FEF790FA0020FEF78DFA992044
:104B6800FEF78AFA0020FEF787FABB20FEF784FAE0
:104B78000020FEF781FA9920FEF77EFA0020FEF762
:104B88007BFA6620FEF778FA0020FEF775FA5520C2
:104B9800FEF772FA0020FEF76FFA5520FEF76CFA5E
:104BA8000020FEF769FA4520FEF766FA0020FEF7B6
:104BB80063FA4320FEF760FA0020FEF75DFA44200E
:104BC800FEF75AFA0020FEF757FAE720FEF766FAD2
:104BD8003220FEF751FA0020FEF74EFA5520FEF774
:104BE8004BFA0020FEF748FA7620FEF745FA002037
:104BF800FEF742FA6620FEF73FFA0020FEF73CFA7D
:104C08006720FEF739FA0020FEF736FA6720FEF72C
:104C180033FA0020FEF730FA8720FEF72DFA00203D
:104C2800FEF72AFA9920FEF727FA0020FEF724FA61
:104C3800BB20FEF721FA0020FEF71EFA9920FEF7A6
:104C48001BFA0020FEF718FA7720FEF715FA002065
:104C5800FEF712FA4420FEF70FFA0020FEF70CFACE
:104C68005620FEF709FA0020FEF706FA2320FEF781
:104C780003FA0020FEF700FA3320FEF7FDF90020C2
:104C8800FEF7FAF94520FEF7F7F90020FEF7F4F9E8
:104C9800E820FEF703FA0020FEF7EEF90020FEF701
:104CA800EBF99920FEF7E8F90020FEF7E5F98720EF
:104CB800FEF7E2F90020FEF7DFF98820FEF7DCF9BD
:104CC8000020FEF7D9F97720FEF7D6F90020FEF785
:104CD800D3F96620FEF7D0F90020FEF7CDF9882039
:104CE800FEF7CAF90020FEF7C7F9AA20FEF7C4F9B3
:104CF8000020FEF7C1F9BB20FEF7BEF90020FEF741
:104D0800BBF99920FEF7B8F90020FEF7B5F966203F
:104D1800FEF7B2F90020FEF7AFF95520FEF7ACF91F
:104D28000020FEF7A9F95520FEF7A6F90020FEF7A6
:104D3800A3F94420FEF7A0F90020FEF79DF94420CE
:104D4800FEF79AF90020FEF797F95520FEF794F937
:104D58000020FEF791F9E920FEF7A0F9AA20FEF756
:104D68008BF90020FEF788F90020FEF785F900206E
:104D7800FEF782F90020FEF791F9AA20FEF77CF9E8
:104D8800CF20FEF78BF90020FEF776F90020FEF71A
:104D980073F90020FEF770F90020FEF76DF9002086
:104DA800FEF76AF90020FEF767F90020FEF764F9BC
:104DB8000020FEF761F90020FEF75EF90020FEF7FB
:104DC8005BF90020FEF758F90020FEF755F900209E
:104DD800FEF752F90020FEF74FF90020FEF74CF9D4
:104DE8000020FEF749F90020FEF746F9F020FEF70B
:104DF80055F90020FEF740F95020FEF73DF9002054
:104E0800FEF73AF90020FEF737F90020FEF734F9EB
:104E1800F320FEF743F90020FEF72EF9F920FEF7FC
:104E28003DF90620FEF728F91020FEF725F929207C
:104E3800FEF722F90020FEF71FF93A20FEF72EF9B7
:104E48005520FEF719F91120FEF728F96420FDF71F
:104E580000FB2920FEF722F93520FEF71FF9002074
:104E6800FEF70AF95120FEF719F9FF20FEF704F9B9
:104E78005320FEF713F92C20FEF7FEF85520FEF715
:104E88000DF98220FEF7F8F82C20FEF707F908BD87
:104E980008B555214FF47040FEF712F9AA214FF2D8
:104EA8000100FEF70DF952214FF20200FEF708F952
:104EB80008214FF20300FEF703F901214FF2040025
:104EC800FEF7FEF80D214FF43040FEF7F9F80D21FA
:104ED8004BF20100FEF7F4F80D214BF20200FEF749
:104EE800EFF834214FF43640FEF7EAF834214BF25C
:104EF8000160FEF7E5F834214BF20260FEF7E0F8B6
:104F08000D214FF43140FEF7DBF80D214BF2011073
:104F1800FEF7D6F80D214BF20210FEF7D1F8342136
:104F28004FF43740FEF7CCF834214BF20170FEF70E
:104F3800C7F834214BF20270FEF7C2F800214FF493
:104F48003240FEF7BDF800214BF20120FEF7B8F819
:104F580000214BF20220FEF7B3F824214FF4384029
:104F6800FEF7AEF824214BF60100FEF7A9F824213C
:104F78004BF60200FEF7A4F801214FF43F40FEF77C
:104F88009FF80F214FF43340FEF79AF80F214BF2A8
:104F98000130FEF795F80F214BF20230FEF790F83A
:104FA80034214FF43940FEF78BF834214BF60110C9
:104FB800FEF786F834214BF60210FEF781F8082137
:104FC8004FF43540FEF77CF808214BF20150FEF70C
:104FD80077F808214BF20250FEF772F803214FF4DC
:104FE8004240FEF76DF824214FF43A40FEF768F886
:104FF80024214BF60120FEF763F824214BF602200A
:10500800FEF75EF800214FF43C40FEF759F878218E
:105018004BF60140FEF754F800214BF60240FEF72C
:105028004FF800214FF43D40FEF74AF878214BF63F
:105038000150FEF745F800214BF60250FEF740F804
:1050480000214FF43E40FEF73BF864214BF6016027
:10505800FEF736F800214FF45140FEF731F83321BE
:105068004DF20110FEF72CF800214DF20210FEF768
:1050780027F834214DF20310FEF722F800214DF2F3
:105088000410FEF71DF83A214DF20510FEF718F846
:1050980000214DF20610FEF713F84A214DF20710D1
:1050A800FEF70EF800214DF20810FEF709F85C2112
:1050B8004DF20910FEF704F800214DF20A10FDF731
:1050C800FFFF81214DF20B10FDF7FAFF00214DF291
:1050D8000C10FDF7F5FFA6214DF20D10FDF7F0FFBE
:1050E80000214DF20E10FDF7EBFFE5214DF20F10F8
:1050F800FDF7E6FF01214DF21010FDF7E1FF132146
:105108004DF21110FDF7DCFF01214DF21210FDF7F1
:10511800D7FF54214DF21310FDF7D2FF01214DF2B4
:105128001410FDF7CDFF82214DF21510FDF7C8FFD1
:1051380001214DF21610FDF7C3FFCA214DF21710D9
:10514800FDF7BEFF02214DF21810FDF7B9FF00214F
:105158004DF21910FDF7B4FF02214DF21A10FDF7B8
:10516800AFFF01214DF21B10FDF7AAFF02214DF2FE
:105178001C10FDF7A5FF34214DF21D10FDF7A0FF0F
:1051880002214DF21E10FDF79BFF67214DF21F1003
:10519800FDF796FF02214DF22010FDF791FF8421C3
:1051A8004DF22110FDF78CFF02214DF22210FDF780
:1051B80087FFA4214DF22310FDF782FF02214DF253
:1051C8002410FDF77DFFB7214DF22510FDF778FF7C
:1051D80002214DF22610FDF773FFCF214DF2271063
:1051E800FDF76EFF02214DF22810FDF769FFDE2161
:1051F8004DF22910FDF764FF02214DF22A10FDF748
:105208005FFFF2214DF22B10FDF75AFF02214DF2FC
:105218002C10FDF755FFFE214DF22D10FDF750FF24
:1052280003214DF22E10FDF74BFF10214DF22F10E8
:10523800FDF746FF03214DF23010FDF741FF332102
:105248004DF23110FDF73CFF03214DF23210FDF70E
:1052580037FF6D214DF23310FDF732FF00214FF477
:105268005240FDF72DFF33214DF20120FDF728FFB5
:1052780000214DF20220FDF723FF34214DF20320D7
:10528800FDF71EFF00214DF20420FDF719FF3A211A
:105298004DF20520FDF714FF00214DF20620FDF721
:1052A8000FFF4A214DF20720FDF70AFF00214DF2BA
:1052B8000820FDF705FF5C214DF20920FDF700FFEE
:1052C80000214DF20A20FDF7FBFE81214DF20B2053
:1052D800FDF7F6FE00214DF20C20FDF7F1FEA621A8
:1052E8004DF20D20FDF7ECFE00214DF20E20FDF7EA
:1052F800E7FEE5214DF20F20FDF7E2FE01214DF218
:105308001020FDF7DDFE13214DF21120FDF7D8FE28
:1053180001214DF21220FDF7D3FE54214DF2132046
:10532800FDF7CEFE01214DF21420FDF7C9FE8221C2
:105338004DF21520FDF7C4FE01214DF21620FDF7B0
:10534800BFFECA214DF21720FDF7BAFE02214DF229
:105358001820FDF7B5FE00214DF21920FDF7B0FE2B
:1053680002214DF21A20FDF7ABFE01214DF21B2060
:10537800FDF7A6FE02214DF21C20FDF7A1FE342107
:105388004DF21D20FDF79CFE02214DF21E20FDF777
:1053980097FE67214DF21F20FDF792FE02214DF284
:1053A8002020FDF78DFE84214DF22120FDF788FE97
:1053B80002214DF22220FDF783FEA4214DF2232085
:1053C800FDF77EFE02214DF22420FDF779FEB7217C
:1053D8004DF22520FDF774FE02214DF22620FDF73F
:1053E8006FFECF214DF22720FDF76AFE02214DF214
:1053F8002820FDF765FEDE214DF22920FDF760FE2D
:1054080002214DF22A20FDF75BFEF2214DF22B20FE
:10541800FDF756FE02214DF22C20FDF751FEFE212C
:105428004DF22D20FDF74CFE03214DF22E20FDF705
:1054380047FE10214DF22F20FDF742FE03214DF2C9
:105448003020FDF73DFE33214DF23120FDF738FEC7
:1054580003214DF23220FDF733FE6D214DF233204A
:10546800FDF72EFE00214FF45340FDF729FE3321AE
:105478004DF20130FDF724FE00214DF20230FDF718
:105488001FFE34214DF20330FDF71AFE00214DF2C4
:105498000430FDF715FE3A214DF20530FDF710FEF8
:1054A80000214DF20630FDF70BFE4A214DF2073080
:1054B800FDF706FE00214DF20830FDF701FE5C21E4
:1054C8004DF20930FDF7FCFD00214DF20A30FDF7E1
:1054D800F7FD81214DF20B30FDF7F2FD00214DF271
:1054E8000C30FDF7EDFDA6214DF20D30FDF7E8FD7E
:1054F80000214DF20E30FDF7E3FDE5214DF20F30AE
:10550800FDF7DEFD01214DF21030FDF7D9FD132125
:105518004DF21130FDF7D4FD01214DF21230FDF7A7
:10552800CFFD54214DF21330FDF7CAFD01214DF294
:105538001430FDF7C5FD82214DF21530FDF7C0FD91
:1055480001214DF21630FDF7BBFDCA214DF217308F
:10555800FDF7B6FD02214DF21830FDF7B1FD00212F
:105568004DF21930FDF7ACFD02214DF21A30FDF76E
:10557800A7FD01214DF21B30FDF7A2FD02214DF2DE
:105588001C30FDF79DFD34214DF21D30FDF798FDCF
:1055980002214DF21E30FDF793FD67214DF21F30B9
:1055A800FDF78EFD02214DF22030FDF789FD8421A3
:1055B8004DF22130FDF784FD02214DF22230FDF736
:1055C8007FFDA4214DF22330FDF77AFD02214DF233
:1055D8002430FDF775FDB7214DF22530FDF770FD3C
:1055E80002214DF22630FDF76BFDCF214DF2273019
:1055F800FDF766FD02214DF22830FDF761FDDE2141
:105608004DF22930FDF75CFD02214DF22A30FDF7FD
:1056180057FDF2214DF22B30FDF752FD02214DF2DC
:105628002C30FDF74DFDFE214DF22D30FDF748FDE4
:1056380003214DF22E30FDF743FD10214DF22F309E
:10564800FDF73EFD03214DF23030FDF739FD3321E2
:105658004DF23130FDF734FD03214DF23230FDF7C4
:105668002FFD6D214DF23330FDF72AFD00214FF457
:105678005440FDF725FD33214DF20140FDF720FD93
:1056880000214DF20240FDF71BFD34214DF203408D
:10569800FDF716FD00214DF20440FDF711FD3A21FA
:1056A8004DF20540FDF70CFD00214DF20640FDF7D7
:1056B80007FD4A214DF20740FDF702FD00214DF29A
:1056C8000840FDF7FDFC5C214DF20940FDF7F8FCB0
:1056D80000214DF20A40FDF7F3FC81214DF20B4009
:1056E800FDF7EEFC00214DF20C40FDF7E9FCA62188
:1056F8004DF20D40FDF7E4FC00214DF20E40FDF7A0
:10570800DFFCE5214DF20F40FDF7DAFC01214DF2F7
:105718001040FDF7D5FC13214DF21140FDF7D0FCE8
:1057280001214DF21240FDF7CBFC54214DF21340FC
:10573800FDF7C6FC01214DF21440FDF7C1FC8221A2
:105748004DF21540FDF7BCFC01214DF21640FDF766
:10575800B7FCCA214DF21740FDF7B2FC02214DF209
:105768001840FDF7ADFC00214DF21940FDF7A8FCEB
:1057780002214DF21A40FDF7A3FC01214DF21B4016
:10578800FDF79EFC02214DF21C40FDF799FC3421E7
:105798004DF21D40FDF794FC02214DF21E40FDF72D
:1057A8008FFC67214DF21F40FDF78AFC02214DF264
:1057B8002040FDF785FC84214DF22140FDF780FC57
:1057C80002214DF22240FDF77BFCA4214DF223403B
:1057D800FDF776FC02214DF22440FDF771FCB7215C
:1057E8004DF22540FDF76CFC02214DF22640FDF7F5
:1057F80067FCCF214DF22740FDF762FC02214DF2F4
:105808002840FDF75DFCDE214DF22940FDF758FCEC
:1058180002214DF22A40FDF753FCF2214DF22B40B4
:10582800FDF74EFC02214DF22C40FDF749FCFE210C
:105838004DF22D40FDF744FC03214DF22E40FDF7BB
:105848003FFC10214DF22F40FDF73AFC03214DF2A9
:105858003040FDF735FC33214DF23140FDF730FC87
:1058680003214DF23240FDF72BFC6D214DF2334000
:10587800FDF726FC00214FF45540FDF721FC3321AC
:105888004DF20150FDF71CFC00214DF20250FDF7CE
:1058980017FC34214DF20350FDF712FC00214DF2A4
:1058A8000450FDF70DFC3A214DF20550FDF708FCB8
:1058B80000214DF20650FDF703FC4A214DF2075036
:1058C800FDF7FEFB00214DF20850FDF7F9FB5C21C6
:1058D8004DF20950FDF7F4FB00214DF20A50FDF797
:1058E800EFFB81214DF20B50FDF7EAFB00214DF251
:1058F8000C50FDF7E5FBA6214DF20D50FDF7E0FB3E
:1059080000214DF20E50FDF7DBFBE5214DF20F5063
:10591800FDF7D6FB01214DF21050FDF7D1FB132105
:105928004DF21150FDF7CCFB01214DF21250FDF75D
:10593800C7FB54214DF21350FDF7C2FB01214DF274
:105948001450FDF7BDFB82214DF21550FDF7B8FB51
:1059580001214DF21650FDF7B3FBCA214DF2175045
:10596800FDF7AEFB02214DF21850FDF7A9FB00210F
:105978004DF21950FDF7A4FB02214DF21A50FDF724
:105988009FFB01214DF21B50FDF79AFB02214DF2BE
:105998001C50FDF795FB34214DF21D50FDF790FB8F
:1059A80002214DF21E50FDF78BFB67214DF21F506F
:1059B800FDF786FB02214DF22050FDF781FB842183
:1059C8004DF22150FDF77CFB02214DF22250FDF7EC
:1059D80077FBA4214DF22350FDF772FB02214DF213
:1059E8002450FDF76DFBB7214DF22550FDF768FBFC
:1059F80002214DF22650FDF763FBCF214DF22750CF
:105A0800FDF75EFB02214DF22850FDF759FBDE2120
:105A18004DF22950FDF754FB02214DF22A50FDF7B3
:105A28004FFBF2214DF22B50FDF74AFB02214DF2BC
:105A38002C50FDF745FBFE214DF22D50FDF740FBA4
:105A480003214DF22E50FDF73BFB10214DF22F5054
:105A5800FDF736FB03214DF23050FDF731FB3321C2
:105A68004DF23150FDF72CFB03214DF23250FDF77A
:105A780027FB6D214DF23350FDF722FB00214FF437
:105A88005640FDF71DFB33214DF20160FDF718FB71
:105A980000214DF20260FDF713FB34214DF2036043
:105AA800FDF70EFB00214DF20460FDF709FB3A21DA
:105AB8004DF20560FDF704FB00214DF20660FDF78D
:105AC800FFFA4A214DF20760FDF7FAFA00214DF27C
